:1000000023C03DC03CC03BC03AC039C038C037C037
:1000100036C035C034C033C032C0D3C230C02FC0A8
:100020002EC02DC02CC02BC02AC029C028C027C07C
:1000300026C025C015C31BC321C327C32DC333C38B
:1000400039C33FC345C305C311241FBECFEFD4E05E
:10005000DEBFCDBF12E0A0E0B1E0EEE9FCE002C0FF
:1000600005900D92AA39B107D9F712E0AAE9B2E0DA
:1000700001C01D92A03CB107E1F7E9D00FC6C0CF87
:10008000982F882349F022E030E040E050E0822FB2
:100090008A95F1F79150D9F70895CF93DF93282FE0
:1000A000882349F0A0EDB7E0C0E0D0E0CD01019792
:1000B000F1F72150D9F7DF91CF9108951F93CF9396
:1000C000182FC0E0C817B0F48AEFE7DF8AEFE5DF4A
:1000D0008AEFE3DF8AEFE1DFCF5FC11758F48AEFE1
:1000E000DCDF8AEFDADF8AEFD8DF8AEFD6DFCF5F97
:1000F000C11750F3CF911F910895CF93C82F862F2A
:10010000AED3CC2351F0C13009F43FC0C23009F462
:1001100058C0C33009F070C01CC06C2F8C2FA7D3FF
:1001200061E08C2FA4D362E08C2FA1D36C2F81E0EF
:100130009ED36C2F82E09BD361E0862F98D362E040
:10014000862F95D363E0862F92D364E0862F8FD3DA
:1001500053C060E086E08BD361E086E088D362E044
:1001600086E085D360E085E082D360E084E07FD3E1
:1001700061E085E07CD362E084E079D36C2F8C2F42
:1001800076D364E082E073D337C064E080E06FD35D
:1001900063E080E06CD362E080E069D364E08C2FA0
:1001A00066D364E082E063D363E08C2F60D362E0C7
:1001B000862F5DD36C2F83E05AD360E084E057D361
:1001C0001BC064E086E053D363E086E050D36C2F1D
:1001D00086E04DD364E085E04AD364E0862F47D3C0
:1001E00063E085E044D36C2F84E041D361E083E099
:1001F0003ED360E08C2F3BD3CF91089562E080E046
:100200007CDF88EC4ADF88EC48DF88EC46DF1FD3D0
:1002100062E081E072DF88EC40DF88EC3EDF88EC52
:100220003CDF15D362E0862F68DF88EC36DF88EC90
:1002300034DF88EC32DF0BD362E083E05EDF88ECF2
:100240002CDF88EC2ADF88EC28DF01D30895CFEF7C
:10025000D4E0DEBFCDBFDD2431E0C32E69D2EAD2C7
:100260008AE0F0D2F4D24CD271D293D380E091E004
:10027000BFD3C4DF8C2D22DFEAD2C0E0D0E0EC2C6B
:10028000FF241E141F0494F405E211E062E0F8015B
:1002900081918F0132DF88EC00DF88ECFEDE88EC94
:1002A000FCDED5D22196CE15DF0584F3C0E0D0E088
:1002B00005E211E0CCD27FD2DD20C9F59091B802E1
:1002C000992361F48091A102882341F48091A002D6
:1002D000882321F48091BC02882329F021E0D22ECA
:1002E000992309F069C08091A1028823B1F580911A
:1002F000A002882309F042C08091BC02882309F043
:100300004EC0EC16FD06B1F6C394CB5DDE4F24D48F
:10031000FC0197FD5EC0E8E0FE02E12DFF0B112419
:10032000EF5DFE4F8081888388ECB7DEA5CF80919A
:10033000B802882309F0BECF8091A102882309F07A
:10034000B9CF8091A002882309F0B4CF8091BC027C
:10035000882309F0AFCFD82EADCF61E0862FCDDE58
:1003600084E69BDEF80180818130B1F521960F5F34
:100370001F4F8091A002882309F4BECF61E082E084
:10038000BCDE84E68ADEF8018081823029F5219680
:100390000F5F1F4F8091BC02882309F4B2CF61E048
:1003A00083E0ABDE84E679DEF80180818330A1F45E
:1003B00021960F5F1F4FA5CF6D2D80E09EDE84E656
:1003C0006CDEF8018081882339F421960F5F1F4F7E
:1003D0008ACFE150F04E9FCF3AD280E090E05EC4E9
:1003E00080919D02882339F48093B9028091800026
:1003F0008F77809380008091B902882309F4B9C077
:1004000080919D028F3F09F4CFC080918000806869
:10041000809380008091B5029091B60290938900FC
:10042000809388005091B20240919B02652F640F27
:10043000712D711DDB019091B30280919C02692F97
:10044000680F712D711D9B016F3F710511F008F050
:1004500011962115310509F01196CD010197A032B1
:10046000B10508F090978032910508F08097E091EF
:10047000A302F091A402AE0FBF1F6C91E80FF91F09
:10048000E081852F840F2F3F310521F018F08F5F19
:10049000205031402093B302803208F08052809384
:1004A000B202E61708F077C0862F99274E2F5527FE
:1004B000841B950B2091B3023327289FD001299FDD
:1004C000B00D389FB00D11242B2F3327E61708F0FD
:1004D00051C0420F531F5093B6024093B502809112
:1004E000B5029091B60297FD51C08091A5029091FE
:1004F000A602009731F001979093A6028093A5027F
:1005000008958091BA029091BB02009709F052C001
:1005100088EC90E09093BB028093BA02219AA0915C
:10052000BD02B091BE024D91B093BE02A093BD0238
:10053000E42FFF27EE0FFF1FEF54FE4F2081318184
:10054000832F992780939B0220939C028D91B093D7
:10055000BE02A093BD0240939D02E82FFF27EE0F3D
:10056000FF1FE957FE4F808191819093A6028093EF
:10057000A5020895421B530B5093B6024093B50257
:100580008091B5029091B60297FFAFCF1092B6025C
:100590001092B502AACF4E2F55279A01261B31097A
:1005A0008091B302992789CF809180008F778093C3
:1005B000800038CF01979093BB028093BA022198B4
:1005C00008951F920F920FB60F9211242F933F930D
:1005D0004F935F936F937F938F939F93AF93BF934B
:1005E000EF93FF93FDDE80919402815080939402FB
:1005F00080919402882309F072C084E18093940270
:100600008091A2029927AA27BB27FC010A97F0F044
:100610008091A2028F5F8093A2028091A2028A3011
:1006200008F45DC01092A2028091B70281508093BD
:10063000B7028091B702882309F051C08091B102BE
:100640008093B70281E08093B40249C0E65EFF4F19
:1006500009942E988091B00280688BB92F9AD8CFD8
:100660002F988091A70280688BB9419AD1CF419889
:100670008091A80280688BB9429ACACF4298809133
:10068000A90280688BB9439AC3CF43988091AA028C
:1006900080688BB9449ABCCF44988091AB02806843
:1006A0008BB9459AB5CF45988091AC0280688BB9DB
:1006B0002B9AAECF2B988091AD0280688BB92C9A83
:1006C000A7CF2C988091AE0280688BB92D9AA0CFCD
:1006D0002D988091AF0280688BB92E9A99CFFF91A7
:1006E000EF91BF91AF919F918F917F916F915F91AA
:1006F0004F913F912F910F900FBE0F901F90189523
:1007000081E390E0909387008093860089E190E0F8
:10071000909389008093880082E8809380008AE12A
:100720008093810080916F00816080936F000895B5
:1007300085E085B98AEF84B981E088B98EEF87B901
:1007400080E88BB98FE78AB9789408951092B8023F
:100750001092A1021092A0021092BC0210929E026E
:1007600010929A0210929F021092BF0208958091F7
:10077000B802882311F018991BC08091A102882328
:1007800011F01A9912C08091A002882311F03099BB
:1007900009C08091BC02882321F04F9B02C01092B7
:1007A000BC0208951092A002F4CF1092A102EBCFE8
:1007B0001092B802E2CF8091B802882341F41899D0
:1007C00006C081E08093B80280939E0208958091D4
:1007D000A102882391F08091A002882311F4309B1C
:1007E00016C08091BC02882381F44F990EC081E02D
:1007F0008093BC028093BF0208951A99ECCF81E0E8
:100800008093A10280939A020895B1DF089581E058
:100810008093A00280939F0208958091B402882360
:1008200029F400008091B4028823D9F300001092CB
:10083000B40208951092B40281E08093B1028093D3
:10084000B7020895882311F08093B1020895E7EA72
:10085000F2E089E01192815087FFFCCF0895837008
:100860008093930208958091930299270895282FE9
:10087000873038F5653028F580E490E002C0959522
:1008800087952A95E2F7282F3091930230FD1AC000
:100890007727FB01E955FD4F982F90958581892396
:1008A000858331FF07C0FB01E955FD4F8081822B15
:1008B00080830895FB01E955FD4F209580818223B7
:1008C000808308957727FB01E955FD4F8581822BB1
:1008D000E7CF0F931F93CF93DF93182F022F87300B
:1008E00008F052C0653008F04FC0473008F04CC0E7
:1008F000253008F049C0481708F443C0061718F41B
:10090000862F602F082F262F0617F0F18091930273
:100910009927BC0161707070DC01A270B070512F1A
:10092000411758F1E22FFF27C0E4D0E0E955FD4F11
:100930000BC08581832B85831097C1F08081832B29
:1009400080835F5F4517C8F0CE01052E02C09595E4
:1009500087950A94E2F7382F6115710551F7982FA2
:100960009095858189238583109741F73095808103
:10097000832380835F5F451738F72F5F021778F670
:1009800003C0142F482FBACFDF91CF911F910F9141
:10099000089583E592E09093A4028093A3021092BD
:1009A000B9028091530299279093B6028093B502C1
:1009B00008950895823029F0813051F0833079F024
:1009C000089583E792E09093A4028093A302089590
:1009D00083E592E09093A4028093A302089583E3B9
:1009E00092E09093A4028093A3020895089508953D
:1009F000CF93DF93EC01009709F441C01092B90244
:100A00009093BE028093BD02DC014D91B093BE0273
:100A1000A093BD02442399F1E42FFF27EE0FFF1F9F
:100A2000EF54FE4F20813181832F992780939B02C1
:100A300020939C0289811196B093BE02A093BD02BF
:100A400040939D02E82FFF27EE0FFF1FE957FE4F4F
:100A5000808191819093A6028093A5021092B202A8
:100A60001092B302E091A302F091A4028081992731
:100A70009093B6028093B50281E08093B902DF9132
:100A8000CF9108958091B902992708958091B90274
:100A9000882329F000008091B9028823D9F70895AE
:100AA000A0E0B0E0E5E5F5E0A8C0EC01A880B980E1
:100AB000CA80DB80A114B104C104D10441F484E2F2
:100AC000A82E89EDB82E8BE5C82E87E0D82EC6015A
:100AD000B5012DE133EF41E050E06CD079018A019E
:100AE000C601B5012DE133EF41E050E063D0DC01F8
:100AF000CB01BC01CD0127EA31E440E050E03BD01E
:100B00005B016C01C801B70124E13BE040E050E02B
:100B100032D0DC01CB01A81AB90ACA0ADB0AD7FE17
:100B200008C08FEF9FEFAFEFBFE7A80EB91ECA1E38
:100B3000DB1EA882B982CA82DB828FEF9FE7A0E02A
:100B4000B0E0A822B922CA22DB22C501EAE0CDB773
:100B5000DEB76FC0A5DF089585E992E0A1DF0895B3
:100B6000AA27BB278093950290939602A0939702A1
:100B7000B09398020895629FD001739FF001829F05
:100B8000E00DF11D649FE00DF11D929FF00D839F1C
:100B9000F00D749FF00D659FF00D9927729FB00DB9
:100BA000E11DF91F639FB00DE11DF91FBD01CF01CC
:100BB0001124089597FB092E05260ED057FD04D069
:100BC0004BD00AD0001C38F45095409530952195B3
:100BD0003F4F4F4F5F4F0895F6F790958095709572
:100BE00061957F4F8F4F9F4F08952F923F924F9265
:100BF0005F926F927F928F929F92AF92BF92CF92AD
:100C0000DF92EF92FF920F931F93CF93DF93CDB7B5
:100C1000DEB7CA1BDB0B0FB6F894DEBF0FBECDBF2D
:100C200009942A88398848885F846E847D848C84FE
:100C30009B84AA84B984C884DF80EE80FD800C8107
:100C40001B81AA81B981CE0FD11D0FB6F894DEBFEA
:100C50000FBECDBFED010895A1E21A2EAA1BBB1B4A
:100C6000FD010DC0AA1FBB1FEE1FFF1FA217B30778
:100C7000E407F50720F0A21BB30BE40BF50B661F8E
:100C8000771F881F991F1A9469F760957095809552
:0E0C900090959B01AC01BD01CF010895FFCFEF
:100C9E002C0628062A062C062F062D062D063106B2
:100CAE002F062F063406330634062F062C06281878
:100CBE00000001020301000000000000000000001F
:100CCE000000000000000000000000000000000016
:100CDE000000000000000000000000000000000006
:100CEE0000000000000000000000000000000000F6
:100CFE0000000000000000000000000000000000E6
:100D0E0000000000000000000000000000000000D5
:100D1E0000000000000000000000000000C40905F3
:100D2E000D000088130000000000000000000010FD
:100D3E00270000000000000000000000000000007E
:100D4E0000000000000000204E0000000000000027
:100D5E000000000000000000000000000000003055
:100D6E007500000000000000000000000000000000
:100D7E0000000000000000409C4000440048004C71
:100D8E0000510055005A00600066006C0072007938
:100D9E00008000880090009800A100AB00B500C054
:100DAE0000CB00D700E400F20000010F011F01305C
:100DBE0001430156016A017F019601AF01C801E3AB
:100DCE000100020000000000000000000000000012
:100DDE000000003131313131313131313131313188
:100DEE00313131000203050608090B0D0E101113E7
:100DFE00151618191B1C1E202123242628292B2CDE
:100E0E002E2F31191D22262A2D2F3131312F2D2A29
:100E1E0026221D19140F0B070402000000020407FE
:0A0E2E000B0F140114010000000076
:00000001FF
