:1000000023C03DC03CC03BC03AC039C038C037C037
:1000100036C035C034C033C032C09DC130C02FC0DF
:100020002EC02DC02CC02BC02AC029C028C027C07C
:1000300026C025C0DFC1E5C1EBC1F1C1F7C1FDC1DB
:1000400003C209C20FC2CFC111241FBECFEFD4E03B
:10005000DEBFCDBF12E0A0E0B1E0E6E3F8E002C011
:1000600005900D92AE32B107D9F712E0AEE2B2E0E0
:1000700001C01D92A83BB107E1F760D0DBC3C0CF40
:10008000982F882349F022E030E040E050E0822FB2
:100090008A95F1F79150D9F70895CF93DF93282FE0
:1000A000882349F0A0EDB7E0C0E0D0E0CD01019792
:1000B000F1F72150D9F7DF91CF9108951F93CF9396
:1000C000182FC0E0C817B0F48AEFE7DF8AEFE5DF4A
:1000D0008AEFE3DF8AEFE1DFCF5FC11758F48AEFE1
:1000E000DCDF8AEFDADF8AEFD8DF8AEFD6DFCF5F97
:1000F000C11750F3CF911F910895862F7AD260E0F7
:10010000862F7FD261E080E07CD262E080E079D20D
:1001100060E081E076D260E082E073D261E0862F19
:1001200070D262E0862F6DD263E0862F6AD264E0DF
:10013000862F67D265E0862F64D20895CFEFD4E092
:10014000DEBFCDBFBFD140D28AE046D24AD2A2D1D3
:10015000C7D1E9D280E091E015D381E0AFDF62E062
:1001600080E0CBDF88EC99DF61E080E0C6DF80E0F3
:1001700090E060C380919502882339F48093B102A6
:10018000809180008F77809380008091B1028823D6
:1001900009F4B9C0809195028F3F09F4CFC08091D6
:1001A00080008068809380008091AD029091AE02C3
:1001B00090938900809388005091AA024091930205
:1001C000652F640F712D711DDB019091AB02809141
:1001D0009402692F680F712D711D9B016F3F71058E
:1001E00011F008F011962115310509F01196CD0195
:1001F0000197A032B10508F090978032910508F080
:100200008097E0919B02F0919C02AE0FBF1F6C9112
:10021000E80FF91FE081852F840F2F3F310521F072
:1002200018F08F5F205031402093AB02803208F0ED
:1002300080528093AA02E61708F077C0862F99278C
:100240004E2F5527841B950B2091AB023327289FF7
:10025000D001299FB00D389FB00D11242B2F3327CB
:10026000E61708F051C0420F531F5093AE0240935F
:10027000AD028091AD029091AE0297FD51C0809188
:100280009D0290919E02009731F0019790939E02FB
:1002900080939D0208958091B2029091B3020097DD
:1002A00009F052C088EC90E09093B3028093B202C0
:1002B000219AA091B502B091B6024D91B093B602C9
:1002C000A093B502E42FFF27EE0FFF1FE75BFE4F61
:1002D00020813181832F9927809393022093940268
:1002E0008D91B093B602A093B50240939502E82F8A
:1002F000FF27EE0FFF1FE15EFE4F808191819093FB
:100300009E0280939D020895421B530B5093AE02B0
:100310004093AD028091AD029091AE0297FFAFCFB6
:100320001092AE021092AD02AACF4E2F55279A011D
:10033000261B31098091AB02992789CF80918000DB
:100340008F778093800038CF01979093B30280938A
:10035000B202219808951F920F920FB60F921124A6
:100360002F933F934F935F936F937F938F939F93BD
:10037000AF93BF93EF93FF93FDDE80912C028150EA
:1003800080932C0280912C02882309F072C084E1B2
:1003900080932C0280919A029927AA27BB27FC01FF
:1003A0000A97F0F080919A028F5F80939A02809171
:1003B0009A028A3008F45DC010929A028091AF02CE
:1003C00081508093AF028091AF02882309F051C021
:1003D0008091A9028093AF0281E08093AC0249C072
:1003E000E65EFF4F09942E988091A80280688BB931
:1003F0002F9AD8CF2F9880919F0280688BB9419A0D
:10040000D1CF41988091A00280688BB9429ACACF1F
:1004100042988091A10280688BB9439AC3CF4398D8
:100420008091A20280688BB9449ABCCF4498809195
:10043000A30280688BB9459AB5CF45988091A402F4
:1004400080688BB92B9AAECF2B988091A5028068DB
:100450008BB92C9AA7CF2C988091A60280688BB973
:100460002D9AA0CF2D988091A70280688BB92E9AE3
:1004700099CFFF91EF91BF91AF919F918F917F9114
:100480006F915F914F913F912F910F900FBE0F9001
:100490001F90189581E390E09093870080938600E9
:1004A00089E190E0909389008093880082E88093AE
:1004B00080008AE18093810080916F008160809349
:1004C0006F00089585E085B98AEF84B981E088B925
:1004D0008EEF87B980E88BB98FE78AB97894089551
:1004E0001092B00210929902109298021092B402E7
:1004F0001092960210929202109297021092B702F6
:1005000008958091B002882311F018991BC0809142
:100510009902882311F01A9912C0809198028823B9
:1005200011F0309909C08091B402882321F04F9BCB
:1005300002C01092B402089510929802F4CF109263
:100540009902EBCF1092B002E2CF8091B0028823E3
:1005500041F4189906C081E08093B002809396021E
:10056000089580919902882391F0809198028823C0
:1005700011F4309B16C08091B402882381F44F9906
:100580000EC081E08093B4028093B70208951A9957
:10059000ECCF81E080939902809392020895B1DFBD
:1005A000089581E080939802809397020895809146
:1005B000AC02882329F400008091AC028823D9F38F
:1005C00000001092AC0208951092AC0281E080937A
:1005D000A9028093AF020895882311F08093A902A5
:1005E0000895EFE9F2E089E01192815087FFFCCF96
:1005F0000895837080932B02089580912B02992790
:100600000895282F873038F5653028F580E490E08C
:1006100002C0959587952A95E2F7282F30912B02F5
:1006200030FD1AC07727FB01E156FD4F982F9095BA
:1006300085818923858331FF07C0FB01E156FD4F8A
:100640008081822B80830895FB01E156FD4F209528
:1006500080818223808308957727FB01E156FD4F37
:100660008581822BE7CF0F931F93CF93DF93182FB2
:10067000022F873008F052C0653008F04FC0473075
:1006800008F04CC0253008F049C0481708F443C0B2
:10069000061718F4862F602F082F262F0617F0F163
:1006A00080912B029927BC0161707070DC01A270EF
:1006B000B070512F411758F1E22FFF27C0E4D0E06E
:1006C000E156FD4F0BC08581832B85831097C1F0C8
:1006D0008081832B80835F5F4517C8F0CE01052E94
:1006E00002C0959587950A94E2F7382F6115710538
:1006F00051F7982F9095858189238583109741F72D
:1007000030958081832380835F5F451738F72F5FA3
:10071000021778F603C0142F482FBACFDF91CF917C
:100720001F910F9108958BEE91E090939C0280931E
:100730009B021092B1028091EB0199279093AE0237
:100740008093AD0208950895823029F0813051F0F0
:10075000833079F008958BE092E090939C0280932F
:100760009B0208958BEE91E090939C0280939B02F4
:1007700008958BEC91E090939C0280939B020895E6
:1007800008950895CF93DF93EC01009709F441C0D9
:100790001092B1029093B6028093B502DC014D91A4
:1007A000B093B602A093B502442399F1E42FFF273A
:1007B000EE0FFF1FE75BFE4F20813181832F9927CA
:1007C000809393022093940289811196B093B6028C
:1007D000A093B50240939502E82FFF27EE0FFF1F6D
:1007E000E15EFE4F8081918190939E0280939D02F5
:1007F0001092AA021092AB02E0919B02F0919C022F
:10080000808199279093AE028093AD0281E080931E
:10081000B102DF91CF9108958091B1029927089597
:100820008091B102882329F000008091B1028823D1
:06083000D9F70895FFCF87
:100836002C0628062A062C062F062D062D0631061E
:100846002F062F063406330634062F062C062818E4
:100856000000000000C409050D0000881300000018
:10086600000000000000001027000000000000004B
:100876000000000000000000000000000000002052
:100886004E00000000000000000000000000000014
:1008960000000000000000307500000000000000AD
:1008A6000000000000000000000000000000004002
:1008B6009C4000440048004C00510055005A00601E
:1008C6000066006C00720079008000880090009835
:1008D60000A100AB00B500C000CB00D700E400F2D9
:1008E6000000010F011F013001430156016A017F1B
:1008F600019601AF01C801E30100020000000000FB
:1009060000000000000000000000003131313131EC
:1009160031313131313131313131310002030506A6
:1009260008090B0D0E101113151618191B1C1E2085
:100936002123242628292B2C2E2F31191D22262A45
:100946002D2F3131312F2D2A26221D19140F0B0779
:0E09560004020000000204070B0F140114003D
:00000001FF
