S00E000073696D6F6E652E737265638B
S113000023C03DC03CC03BC03AC039C038C037C033
S113001036C035C034C033C032C090C430C02FC0E5
S11300202EC02DC02CC02BC02AC029C028C027C078
S113003026C025C0D2C4D8C4DEC4E4C4EAC4F0C413
S1130040F6C4FCC402C5C2C411241FBECFEFD4E061
S1130050DEBFCDBF12E0A0E0B1E0EAE6FEE002C000
S113006005900D92AC35B107D9F712E0ACE5B2E0DA
S113007001C01D92A63EB107E1F785D2F5C6C0CFF7
S1130080982F882349F022E030E040E050E0822FAE
S11300908A95F1F79150D9F70895CF93DF93282FDC
S11300A0882349F0A0EDB7E0C0E0D0E0CD0101978E
S11300B0F1F72150D9F7DF91CF9108951F93CF9392
S11300C0182FC0E0C817B0F48AEFE7DF8AEFE5DF46
S11300D08AEFE3DF8AEFE1DFCF5FC11758F48AEFDD
S11300E0DCDF8AEFDADF8AEFD8DF8AEFD6DFCF5F93
S11300F0C11750F3CF911F91089590914F01292F6B
S113010033272F703070A9015695542F44275795E3
S11301104795421B530B692F62956F70640F609370
S11301204F0190914E01292F33272F7030704CE3EB
S113013050E0249FF001259FF00D349FF00D112411
S113014092959F709E0F90934E01262F33272295F0
S11301503295307F3227207F3227482F5527290FA9
S1130160311DC901BA0159D699270895E0E0F0E09C
S113017090914E018191890F982F80934E018FEFBA
S1130180EF3FF807B9F70895CF93C82F862F24D5EA
S1130190CC2351F0C13009F43FC0C23009F458C037
S11301A0C33009F070C01CC06C2F8C2F1DD561E0CA
S11301B08C2F1AD562E08C2F17D56C2F81E014D5C3
S11301C06C2F82E011D561E0862F0ED562E0862F78
S11301D00BD563E0862F08D564E0862F05D553C080
S11301E060E086E001D561E086E0FED462E086E06E
S11301F0FBD460E085E0F8D460E084E0F5D461E00D
S113020085E0F2D462E084E0EFD46C2F8C2FECD440
S113021064E082E0E9D437C064E080E0E5D463E0E0
S113022080E0E2D462E080E0DFD464E08C2FDCD4B0
S113023064E082E0D9D463E08C2FD6D462E0862FC8
S1130240D3D46C2F83E0D0D460E084E0CDD41BC041
S113025064E086E0C9D463E086E0C6D46C2F86E00F
S1130260C3D464E085E0C0D464E0862FBDD463E0E9
S113027085E0BAD46C2F84E0B7D461E083E0B4D4D1
S113028060E08C2FB1D4CF910895CF93DF93FC011C
S1130290E45AFD4F8081882319F4C0E3D1E00EC0F5
S11302A0813039F0823041F0833041F4C7E2D1E04B
S11302B005C0CDE2D1E002C0CAE2D1E062E08081B3
S11302C063DF88ECEADECE0150D588ECE6DE88EC0C
S11302D0E4DE7AD488ECE1DEDF91CF91089562E028
S11302E080E052DF88ECD9DE88ECD7DE88ECD5DEFE
S11302F06BD462E081E048DF88ECCFDE88ECCDDEB1
S113030088ECCBDE61D462E0862F3EDF88ECC5DE6C
S113031088ECC3DE88ECC1DE57D462E083E034DFCE
S113032088ECBBDE88ECB9DE88ECB7DE4DD40895EA
S11303300F931F938C010E5F1F4F60E0802F54D4E6
S113034061E0802F51D462E0802F4ED463E0802F8F
S11303504BD463E0802F48D464E0802F45D41F91B0
S11303600F9108950F931F938C0160E03DD461E0D9
S1130370802F3AD462E0802F37D463E0802F34D4C6
S113038063E0802F31D464E0802F2ED41F910F912D
S11303900895EF92FF920F931F938C010F5F1F4FED
S11303A072E0E72EF12CE80EF91E60E01DD460E047
S11303B0802F1AD460E08E2D17D41F910F91FF90D7
S11303C0EF900895EF92FF920F931F938C010F5FAC
S11303D01F4FE2E0EE2EF12CE80EF91E62E004D489
S11303E062E0802F01D462E08E2DFED31F910F9125
S11303F0FF90EF900895EF92FF920F931F938C015B
S11304000F5F1F4FF2E0EF2EF12CE80EF91E64E0AF
S1130410EBD364E0802FE8D364E08E2DE5D31F9105
S11304200F91FF90EF900895EF92FF920F931F9317
S1130430CF93DF93EB018B010F5F1F4FA2E0EA2EF6
S1130440F12CE60EF71E009769F181309105D1F188
S11304508230910509F446C08330910561F18430FE
S1130460910509F44AC08530910509F451C08630DC
S1130470910509F458C08730910509F45EC08830AD
S11304809105B9F0099709F05CC0CB016BDF61E01D
S11304908C2FAAD361E08E2DA7D3CE0193DFCE019A
S11304A0AADF4FC0CB015EDFCE0142DFCE0171DF98
S11304B0F6CFCB0157DFCE013BDFCE016ADFCE01A1
S11304C081DFEDCF60E0802F8FD361E0802F8CD36C
S11304D062E0802F89D363E0802F86D364E0802F8D
S11304E083D32FC0CB0155DF61E08E2D7DD3CE01A8
S11304F069DF63E08C2F78D3D2CF60E08C2F74D384
S113050061E08C2F71D3CE0113DFCE015BDF19C004
S1130510CB013FDF61E08C2F67D3CE0153DF63E073
S11305208E2D62D3BCCFCB011DDFCE014BDF63E048
S11305308C2F5AD363E08E2DF4CFCB01F9DECE019C
S113054028DFDF91CF911F910F91FF90EF900895D5
S1130550EF92FF920F931F937C0181E03DD30AE059
S113056010E0C701B80159D464E070E05DDFC70151
S1130570B80153D4CB0160E070E056DF1F910F91B6
S1130580FF90EF900895CFEFD4E0DEBFCDBFEEDD56
S11305908CD2DD2401E0C02E84E0AFDDE82FFF27FC
S11305A0E65BFE4F808180935C0201D38AE007D32F
S11305B00BD363D288D2AAD383E391E0D6D38FDE60
S11305C08C2D7CDD01D3C0E0D0E0EC2CFF241E1484
S11305D01F0434F4CE0159DE2196CE15DF05D4F381
S11305E0C0E0D0E01CE5A12E12E0B12EAE0CBF1C81
S11305F00CE512E0E9D29CD2DD2009F03FC09091D5
S1130600DE02992361F48091C702882341F480912A
S1130610C602882321F48091E202882329F0B1E004
S1130620DB2E992309F078C08091C7028823E1F575
S11306308091C602882309F04BC08091E20288238E
S113064009F05AC0EC16FD06A9F6F3E6CF1609F434
S11306507BC0BAD288EC21DD80E291E086D3C394DA
S113066084E04BDDE82FFF27E65BFE4F8081F50138
S1130670808388EC12DD88EC10DDA4CF8091DE024B
S1130680882309F0B7CF8091C702882309F0B2CF3D
S11306908091C602882309F0ADCF8091E2028823BD
S11306A009F0A8CFD82EA6CF63E081E06DDD8DE2FE
S11306B091E05BD384E6F1DCF80180818130E1F5DF
S11306C021960F5F1F4F8091C602882309F4B5CF8E
S11306D063E082E059DD8AE291E047D384E6DDDC21
S11306E0F8018081823041F521960F5F1F4F809180
S11306F0E202882309F4A6CF63E0862F45DD87E272
S113070091E033D384E6C9DCF80180818330A1F41D
S113071021960F5F1F4F96CF63E080E035DD80E3C5
S113072091E023D384E6B9DCF8018081882321F4A5
S113073021960F5F1F4F78CF47D288ECAEDC88EC50
S1130740ACDC80E091E003C03FD28DE091E00DD3BA
S1130750C701FEDE80E090E087C38091C302882356
S113076039F48093DF02809180008F77809380003A
S11307708091DF02882309F4B9C08091C3028F3FBE
S113078009F4CFC0809180008068809380008091BC
S1130790DB029091DC029093890080938800509151
S11307A0D8024091C102652F640F712D711DDB01C8
S11307B09091D9028091C202692F680F712D711D29
S11307C09B016F3F710511F008F011962115310559
S11307D009F01196CD010197A032B10508F0909768
S11307E08032910508F08097E091C902F091CA0225
S11307F0AE0FBF1F6C91E80FF91FE081852F840FA6
S11308002F3F310521F018F08F5F205031402093A5
S1130810D902803208F080528093D802E61708F09B
S113082077C0862F99274E2F5527841B950B20912F
S1130830D9023327289FD001299FB00D389FB00DCE
S113084011242B2F3327E61708F051C0420F531FF2
S11308505093DC024093DB028091DB029091DC0236
S113086097FD51C08091CB029091CC02009731F05A
S113087001979093CC028093CB0208958091E0027B
S11308809091E102009709F052C088EC90E09093B7
S1130890E1028093E002219AA091E302B091E40284
S11308A04D91B093E402A093E302E42FFF27EE0FEF
S11308B0FF1FE858FE4F20813181832F99278093B1
S11308C0C1022093C2028D91B093E402A093E3028B
S11308D04093C302E82FFF27EE0FFF1FE25BFE4F9A
S11308E0808191819093CC028093CB020895421B26
S11308F0530B5093DC024093DB028091DB02909116
S1130900DC0297FFAFCF1092DC021092DB02AACF79
S11309104E2F55279A01261B31098091D902992718
S113092089CF809180008F778093800038CF0197A2
S11309309093E1028093E002219808951F920F9210
S11309400FB60F9211242F933F934F935F936F939E
S11309507F938F939F93AF93BF93EF93FF93FDDEAA
S113096080915B02815080935B0280915B028823BB
S113097009F072C084E180935B028091C8029927D8
S1130980AA27BB27FC010A97F0F08091C8028F5F69
S11309908093C8028091C8028A3008F45DC0109226
S11309A0C8028091DD0281508093DD028091DD02D6
S11309B0882309F051C08091D7028093DD0281E041
S11309C08093DA0249C0E65EFF4F09942E98809125
S11309D0D60280688BB92F9AD8CF2F988091CD02F8
S11309E080688BB9419AD1CF41988091CE028068BA
S11309F08BB9429ACACF42988091CF0280688BB952
S1130A00439AC3CF43988091D00280688BB9449AAB
S1130A10BCCF44988091D10280688BB9459AB5CFF8
S1130A2045988091D20280688BB92B9AAECF2B98CF
S1130A308091D30280688BB92C9AA7CF2C9880918F
S1130A40D40280688BB92D9AA0CF2D988091D502BD
S1130A5080688BB92E9A99CFFF91EF91BF91AF9196
S1130A609F918F917F916F915F914F913F912F91C2
S1130A700F900FBE0F901F90189581E390E0909314
S1130A8087008093860089E190E0909389008093A9
S1130A90880082E8809380008AE1809381008091BD
S1130AA06F00816080936F00089585E085B98AEFB7
S1130AB084B981E088B98EEF87B980E88BB98FE774
S1130AC08AB9789408951092DE021092C7021092A7
S1130AD0C6021092E2021092C4021092C002109256
S1130AE0C5021092E50208958091DE02882311F078
S1130AF018991BC08091C702882311F01A9912C05B
S1130B008091C602882311F0309909C08091E202D5
S1130B10882321F04F9B02C01092E20208951092A4
S1130B20C602F4CF1092C702EBCF1092DE02E2CFDE
S1130B308091DE02882341F4189906C081E08093F5
S1130B40DE028093C40208958091C702882391F045
S1130B508091C602882311F4309B16C08091E20272
S1130B60882381F44F990EC081E08093E202809340
S1130B70E50208951A99ECCF81E08093C70280932F
S1130B80C0020895B1DF089581E08093C602809386
S1130B90C50208958091DA02882329F40000809127
S1130BA0DA028823D9F300001092DA020895109231
S1130BB0DA0281E08093D7028093DD0208958823CE
S1130BC011F08093D7020895EDECF2E089E01192E0
S1130BD0815087FFFCCF0895837080935A02089553
S1130BE080915A0299270895282F873038F5653067
S1130BF028F580E490E002C0959587952A95E2F760
S1130C00282F30915A0230FD1AC07727FB01E35395
S1130C10FD4F982F909585818923858331FF07C0E7
S1130C20FB01E353FD4F8081822B80830895FB01F8
S1130C30E353FD4F20958081822380830895772795
S1130C40FB01E353FD4F8581822BE7CF0F931F9365
S1130C50CF93DF93182F022F873008F052C06530EE
S1130C6008F04FC0473008F04CC0253008F049C0A8
S1130C70481708F443C0061718F4862F602F082F6E
S1130C80262F0617F0F180915A029927BC01617052
S1130C907070DC01A270B070512F411758F1E22F2F
S1130CA0FF27C0E4D0E0E353FD4F0BC08581832BC5
S1130CB085831097C1F08081832B80835F5F451704
S1130CC0C8F0CE01052E02C0959587950A94E2F7E7
S1130CD0382F6115710551F7982F909585818923D7
S1130CE08583109741F730958081832380835F5FEC
S1130CF0451738F72F5F021778F603C0142F482FD3
S1130D00BACFDF91CF911F910F9108958AE192E0BC
S1130D109093CA028093C9021092DF0280911A0252
S1130D2099279093DC028093DB0208950895823022
S1130D3029F0813051F0833079F008958AE392E00C
S1130D409093CA028093C90208958AE192E0909335
S1130D50CA028093C90208958AEF91E09093CA026F
S1130D608093C902089508950895CF93DF93EC0109
S1130D70009709F441C01092DF029093E40280933B
S1130D80E302DC014D91B093E402A093E302442317
S1130D9099F1E42FFF27EE0FFF1FE858FE4F208143
S1130DA03181832F99278093C1022093C2028981C4
S1130DB01196B093E402A093E3024093C302E82F98
S1130DC0FF27EE0FFF1FE25BFE4F8081918190931E
S1130DD0CC028093CB021092D8021092D902E091F7
S1130DE0C902F091CA02808199279093DC02809312
S1130DF0DB0281E08093DF02DF91CF91089580913F
S1130E00DF02992708958091DF02882329F00000EA
S1130E108091DF028823D9F7089597FB092E0726CE
S1130E200AD077FD04D00CD006D000201AF47095B7
S1130E3061957F4F0895F6F7909581959F4F08959A
S1130E40AA1BBB1B51E107C0AA1FBB1FA617B707EC
S1130E5010F0A61BB70B881F991F5A95A9F7809508
S10D0E609095BC01CD010895FFCF69
S1130E6A231823062830231828062C300034033686
S1130E7A03380334033603380334033603380300D0
S1130E8A340336033803002F03002C03002A03001B
S1130E9A2D030028062C062D18FF0C28062C062FD5
S1130EAA18FF0C2D062C06281800000102030D1148
S1130EBA00000000C409050D0000881300000000AA
S1130ECA00000000000010270000000000000000DD
S1130EDA0000000000000000000000000000204E96
S1130EEA00000000000000000000000000000000F4
S1130EFA000000000000307500000000000000003F
S1130F0A0000000000000000000000000000409CF7
S1130F1A4000440048004C00510055005A0060004B
S1130F2A66006C00720079008000880090009800C6
S1130F3AA100AB00B500C000CB00D700E400F2006A
S1130F4A00010F011F013001430156016A017F01AB
S1130F5A9601AF01C801E30100020000000000008D
S1130F6A000000000000000000003131313131314D
S1130F7A3131313131313131313100020305060861
S1130F8A090B0D0E101113151618191B1C1E2021FE
S1130F9A23242628292B2C2E2F31191D22262A2DCB
S1130FAA2F3131312F2D2A26221D19140F0B070434
S10F0FBA020000000204070B0F140114D5
S9030000FC
