S00E000073696D6F6E652E737265638B
S113000023C03DC03CC03BC03AC039C038C037C033
S113001036C035C034C033C032C00FC430C02FC066
S11300202EC02DC02CC02BC02AC029C028C027C078
S113003026C025C051C457C45DC463C469C46FC419
S113004075C47BC481C441C411241FBECFEFD4E066
S1130050DEBFCDBF12E0A0E0B1E0E6E1FFE002C008
S113006005900D92A63AB107D9F712E0A6EAB2E0DC
S113007001C01D92AC3CB107E1F71DD24BC7C0CF04
S1130080982F882349F022E030E040E050E0822FAE
S11300908A95F1F79150D9F70895CF93DF93282FDC
S11300A0882349F0A0EDB7E0C0E0D0E0CD0101978E
S11300B0F1F72150D9F7DF91CF9108951F93CF9392
S11300C0182FC0E0C817B0F48AEFE7DF8AEFE5DF46
S11300D08AEFE3DF8AEFE1DFCF5FC11758F48AEFDD
S11300E0DCDF8AEFDADF8AEFD8DF8AEFD6DFCF5F93
S11300F0C11750F3CF911F910895CF93C82F862F26
S1130100EAD4CC2351F0C13009F43FC0C23009F421
S113011058C0C33009F070C01CC06C2F8C2FE3D4BE
S113012061E08C2FE0D462E08C2FDDD46C2F81E071
S1130130DAD46C2F82E0D7D461E0862FD4D462E085
S1130140862FD1D463E0862FCED464E0862FCBD41F
S113015053C060E086E0C7D461E086E0C4D462E0C6
S113016086E0C1D460E085E0BED460E084E0BBD426
S113017061E085E0B8D462E084E0B5D46C2F8C2FC4
S1130180B2D464E082E0AFD437C064E080E0ABD4A2
S113019063E080E0A8D462E080E0A5D464E08C2F22
S11301A0A2D464E082E09FD463E08C2F9CD462E00C
S11301B0862F99D46C2F83E096D460E084E093D4A6
S11301C01BC064E086E08FD463E086E08CD46C2F9F
S11301D086E089D464E085E086D464E0862F83D405
S11301E063E085E080D46C2F84E07DD461E083E01B
S11301F07AD460E08C2F77D4CF910895CF93DF9396
S1130200FC01E35FFE4F8081882319F4C1E7D1E04C
S11302100EC0813039F0823041F0833041F4C4E0C3
S1130220D1E005C0CAE0D1E002C0C7E0D1E062E09D
S1130230808163DF88EC31DFCE0116D588EC2DDFB9
S113024088EC2BDF40D488EC28DFDF91CF91089530
S113025062E080E052DF88EC20DF88EC1EDF88EC6F
S11302601CDF31D462E081E048DF88EC16DF88ECE3
S113027014DF88EC12DF27D462E0862F3EDF88EC9F
S11302800CDF88EC0ADF88EC08DF1DD462E083E031
S113029034DF88EC02DF88EC00DF88ECFEDE13D468
S11302A008950F931F938C010E5F1F4F60E0802F02
S11302B01AD461E0802F17D462E0802F14D463E055
S11302C0802F11D463E0802F0ED464E0802F0BD4F0
S11302D01F910F9108950F931F938C0160E003D435
S11302E061E0802F00D462E0802FFDD363E0802F93
S11302F0FAD363E0802FF7D364E0802FF4D31F9107
S11303000F910895EF92FF920F931F938C010F5F4B
S11303101F4F22E0E22EF12CE80EF91E60E0E3D339
S113032060E0802FE0D360E08E2DDDD31F910F912C
S1130330FF90EF900895EF92FF920F931F938C011B
S11303400F5F1F4F32E0E32EF12CE80EF91E62E03E
S1130350CAD362E0802FC7D362E08E2DC4D31F912D
S11303600F91FF90EF900895EF92FF920F931F93D8
S11303708C010F5F1F4F42E0E42EF12CE80EF91EB2
S113038064E0B1D364E0802FAED364E08E2DABD3B0
S11303901F910F91FF90EF900895EF92FF920F93AA
S11303A01F93CF93DF93EB018B010F5F1F4F52E03D
S11303B0E52EF12CE60EF71E009709F469C0813092
S11303C09105D1F08230910591F18330910531F19D
S11303D08430910509F44DC08530910509F458C065
S11303E08630910509F454C08730910509F44CC056
S11303F0089709F04DC010C060E0802F74D361E00D
S1130400802F71D362E0802F6ED363E0802F6BD393
S113041064E0802F68D33CC0CB015DDFCE0141DFB7
S1130420CE0170DFCE0187DFCE019EDF31C060E0F8
S11304308C2F59D360E0802F56D360E08E2D53D398
S113044061E08E2D50D362E08E2D4DD362E0802F7B
S11304504AD362E08C2F47D363E08C2F44D364E00B
S11304608C2F41D364E0802F3ED364E08E2D3BD3A8
S11304700FC060E08C2F37D361E08C2F34D3CE01D2
S113048010DFCE0158DF04C0CB010BDFCE013ADF11
S1130490DF91CF911F910F91FF90EF9008950F93EB
S11304A01F938C0181E017D360E070E0C80175DF11
S11304B01F910F910895CFEFD4E0DEBFCDBFDD24AF
S11304C0F1E0CF2E71D2F2D28AE0F8D2FCD254D22B
S11304D079D29BD384E791E0C7D3BADE8C2DEEDDCD
S11304E0F2D2C0E0D0E0EC2CFF241E141F0434F43C
S11304F0CE0184DE2196CE15DF05D4F3C0E0D0E032
S1130500EDE0AE2EE1E0BE2EAE0CBF1C0DE011E01E
S1130510DAD28DD2DD20C1F59091C402992361F421
S11305208091AD02882341F48091AC02882321F4A8
S11305308091C802882329F071E0D72E992309F00D
S113054072C08091AD028823A9F58091AC02882302
S113055009F045C08091C802882309F054C0EC1604
S1130560FD06B1F6C39434D4FC0197FD6CC0E8E0F9
S1130570FE02E12DFF0B1124E050FF4F8081F501B5
S1130580808388EC8ADDACCF8091C402882309F093
S1130590BFCF8091AD02882309F0BACF8091AC021D
S11305A0882309F0B5CF8091C802882309F0B0CF21
S11305B0D82EAECF63E081E0A0DD8AE091E054D391
S11305C084E66BDDF8018081813009F03FC021961B
S11305D00F5F1F4F8091AC02882309F4BBCF63E007
S11305E082E08BDD87E091E03FD384E656DDF801BD
S11305F08081823059F521960F5F1F4F8091C80288
S1130600882309F4ACCF63E0862F77DD84E091E0A2
S11306102BD384E642DDF80180818330B9F421963E
S11306200F5F1F4F9CCF63E080E067DD81E791E0BF
S11306301BD384E632DDF8018081882339F42196C6
S11306400F5F1F4F7ECFE150F04E91CF3CD2C701D8
S113065026DF80E090E05EC48091A902882339F40B
S11306608093C502809180008F7780938000809171
S1130670C502882309F4B9C08091A9028F3F09F407
S1130680CFC0809180008068809380008091C102F7
S11306909091C20290938900809388005091BE0289
S11306A04091A702652F640F712D711DDB0190919C
S11306B0BF028091A802692F680F712D711D9B01E3
S11306C06F3F710511F008F011962115310509F0FD
S11306D01196CD010197A032B10508F090978032B0
S11306E0910508F08097E091AF02F091B002AE0F4F
S11306F0BF1F6C91E80FF91FE081852F840F2F3FF6
S1130700310521F018F08F5F205031402093BF0253
S1130710803208F080528093BE02E61708F077C05A
S1130720862F99274E2F5527841B950B2091BF02A6
S11307303327289FD001299FB00D389FB00D112475
S11307402B2F3327E61708F051C0420F531F509345
S1130750C2024093C1028091C1029091C20297FDEE
S113076051C08091B1029091B202009731F001978B
S11307709093B2028093B10208958091C602909141
S1130780C702009709F052C088EC90E09093C7022A
S11307908093C602219AA091C902B091CA024D91D8
S11307A0B093CA02A093C902E42FFF27EE0FFF1FE4
S11307B0E354FE4F20813181832F99278093A70230
S11307C02093A8028D91B093CA02A093C9024093CA
S11307D0A902E82FFF27EE0FFF1FED56FE4F808181
S11307E091819093B2028093B1020895421B530BFE
S11307F05093C2024093C1028091C1029091C202FF
S113080097FFAFCF1092C2021092C102AACF4E2F0F
S113081055279A01261B31098091BF02992789CF58
S1130820809180008F778093800038CF01979093D8
S1130830C7028093C602219808951F920F920FB6A3
S11308400F9211242F933F934F935F936F937F9352
S11308508F939F93AF93BF93EF93FF93FDDE8091AC
S1130860A00281508093A0028091A002882309F005
S113087072C084E18093A0028091AE029927AA27D6
S1130880BB27FC010A97F0F08091AE028F5F809342
S1130890AE028091AE028A3008F45DC01092AE02BE
S11308A08091C30281508093C3028091C302882344
S11308B009F051C08091BD028093C30281E080930E
S11308C0C00249C0E65EFF4F09942E988091BC0295
S11308D080688BB92F9AD8CF2F988091B302806803
S11308E08BB9419AD1CF41988091B40280688BB979
S11308F0429ACACF42988091B50280688BB9439AD4
S1130900C3CF43988091B60280688BB9449ABCCF18
S113091044988091B70280688BB9459AB5CF4598C1
S11309208091B80280688BB92B9AAECF2B988091B6
S1130930B90280688BB92C9AA7CF2C988091BA02FF
S113094080688BB92D9AA0CF2D988091BB028068C6
S11309508BB92E9A99CFFF91EF91BF91AF919F914F
S11309608F917F916F915F914F913F912F910F9054
S11309700FBE0F901F90189581E390E0909387002D
S11309808093860089E190E09093890080938800A9
S113099082E8809380008AE18093810080916F00D7
S11309A0816080936F00089585E085B98AEF84B9EA
S11309B081E088B98EEF87B980E88BB98FE78AB96F
S11309C0789408951092C4021092AD021092AC0271
S11309D01092C8021092AA021092A6021092AB02C0
S11309E01092CB0208958091C402882311F01899C3
S11309F01BC08091AD02882311F01A9912C0809116
S1130A00AC02882311F0309909C08091C802882370
S1130A1021F04F9B02C01092C80208951092AC02BC
S1130A20F4CF1092AD02EBCF1092C402E2CF8091CA
S1130A30C402882341F4189906C081E08093C4025B
S1130A408093AA0208958091AD02882391F0809149
S1130A50AC02882311F4309B16C08091C80288230D
S1130A6081F44F990EC081E08093C8028093CB0239
S1130A7008951A99ECCF81E08093AD028093A60289
S1130A800895B1DF089581E08093AC028093AB02B6
S1130A9008958091C002882329F400008091C00247
S1130AA08823D9F300001092C00208951092C00266
S1130AB081E08093BD028093C3020895882311F0DE
S1130AC08093BD020895E3EBF2E089E01192815036
S1130AD087FFFCCF0895837080939F0208958091CF
S1130AE09F0299270895282F873038F5653028F517
S1130AF080E490E002C0959587952A95E2F7282F27
S1130B0030919F0230FD1AC07727FB01ED54FD4F51
S1130B10982F909585818923858331FF07C0FB0138
S1130B20ED54FD4F8081822B80830895FB01ED54A9
S1130B30FD4F209580818223808308957727FB01D0
S1130B40ED54FD4F8581822BE7CF0F931F93CF93F5
S1130B50DF93182F022F873008F052C0653008F059
S1130B604FC0473008F04CC0253008F049C0481742
S1130B7008F443C0061718F4862F602F082F262F79
S1130B800617F0F180919F029927BC016170707083
S1130B90DC01A270B070512F411758F1E22FFF27EA
S1130BA0C0E4D0E0ED54FD4F0BC08581832B8583D9
S1130BB01097C1F08081832B80835F5F4517C8F055
S1130BC0CE01052E02C0959587950A94E2F7382F39
S1130BD06115710551F7982F909585818923858337
S1130BE0109741F730958081832380835F5F451799
S1130BF038F72F5F021778F603C0142F482FBACFA7
S1130C00DF91CF911F910F9108958FE592E090931A
S1130C10B0028093AF021092C50280915F029927BF
S1130C209093C2028093C10208950895823029F0FE
S1130C30813051F0833079F008958FE792E09093FA
S1130C40B0028093AF0208958FE592E09093B002D2
S1130C508093AF0208958FE392E09093B002809363
S1130C60AF02089508950895CF93DF93EC010097A0
S1130C7009F441C01092C5029093CA028093C9023C
S1130C80DC014D91B093CA02A093C902442399F1A7
S1130C90E42FFF27EE0FFF1FE354FE4F2081318125
S1130CA0832F99278093A7022093A8028981119604
S1130CB0B093CA02A093C9024093A902E82FFF2768
S1130CC0EE0FFF1FED56FE4F808191819093B2028B
S1130CD08093B1021092BE021092BF02E091AF0263
S1130CE0F091B002808199279093C2028093C1024F
S1130CF081E08093C502DF91CF9108958091C50270
S1130D00992708958091C502882329F000008091D5
S1130D10C5028823D9F70895A0E0B0E0E1E9F6E040
S1130D20A8C0EC01A880B980CA80DB80A114B104FA
S1130D30C104D10441F484E2A82E89EDB82E8BE5D8
S1130D40C82E87E0D82EC601B5012DE133EF41E06E
S1130D5050E06CD079018A01C601B5012DE133EF71
S1130D6041E050E063D0DC01CB01BC01CD0127EAB6
S1130D7031E440E050E03BD05B016C01C801B701B5
S1130D8024E13BE040E050E032D0DC01CB01A81A82
S1130D90B90ACA0ADB0AD7FE08C08FEF9FEFAFEF8C
S1130DA0BFE7A80EB91ECA1EDB1EA882B982CA827A
S1130DB0DB828FEF9FE7A0E0B0E0A822B922CA222D
S1130DC0DB22C501EAE0CDB7DEB76FC0A5DF089529
S1130DD081EA92E0A1DF0895AA27BB278093A102AC
S1130DE09093A202A093A302B093A4020895629FD9
S1130DF0D001739FF001829FE00DF11D649FE00D0F
S1130E00F11D929FF00D839FF00D749FF00D659F6F
S1130E10F00D9927729FB00DE11DF91F639FB00D6E
S1130E20E11DF91FBD01CF011124089597FB092E7F
S1130E3005260ED057FD04D04BD00AD0001C38F440
S1130E4050954095309521953F4F4F4F5F4F0895F2
S1130E50F6F790958095709561957F4F8F4F9F4FD2
S1130E6008952F923F924F925F926F927F928F924A
S1130E709F92AF92BF92CF92DF92EF92FF920F9325
S1130E801F93CF93DF93CDB7DEB7CA1BDB0B0FB62F
S1130E90F894DEBF0FBECDBF09942A8839884888EC
S1130EA05F846E847D848C849B84AA84B984C88482
S1130EB0DF80EE80FD800C811B81AA81B981CE0F79
S1130EC0D11D0FB6F894DEBF0FBECDBFED0108955E
S1130ED0A1E21A2EAA1BBB1BFD010DC0AA1FBB1F3A
S1130EE0EE1FFF1FA217B307E407F50720F0A21BAC
S1130EF0B30BE40BF50B661F771F881F991F1A9419
S1130F0069F760957095809590959B01AC01BD0142
S1090F10CF010895FFCF9C
S1130F16000102033103002F03002C03000100002B
S1130F2600000000000000000000000000000000B7
S1130F3600000000000000000000000000000000A7
S1130F460000000000000000000000000000000097
S1130F560000000000000000000000000000000087
S1130F660000000000000000000000000000000077
S1130F760000000000000000000000000000000067
S1130F86002803002C0628062A062C062F062D0602
S1130F962D0631062F062F063406330634062F0691
S1130FA62C0628180000000000C409050D0000885E
S1130FB613000000000000000000001027000000DD
S1130FC60000000000000000000000000000000017
S1130FD6000000204E000000000000000000000099
S1130FE60000000000000000000000307500000052
S1130FF600000000000000000000000000000000E7
S1131006000000409C4000440048004C005100553C
S1131016005A00600066006C007200790080008847
S11310260090009800A100AB00B500C000CB00D72B
S113103600E400F20000010F011F013001430156D4
S1131046016A017F019601AF01C801E301000200B4
S11310560000000000000000000000000000003155
S11310663131313131313131313131313131310097
S11310760203050608090B0D0E101113151618198F
S11310861B1C1E202123242628292B2C2E2F311904
S11310961D22262A2D2F3131312F2D2A26221D19C4
S11310A6140F0B0704020000000204070B0F1401BF
S10910B61401000000001B
S9030000FC
