S00E000073696D6F6E652E737265638B
S113000023C03DC03CC03BC03AC039C038C037C033
S113001036C035C034C033C032C0BCC230C02FC0BB
S11300202EC02DC02CC02BC02AC029C028C027C078
S113003026C025C0FEC204C30AC310C316C31CC312
S113004022C328C32EC3EEC211241FBECFEFD4E0B7
S1130050DEBFCDBF12E0A0E0B1E0E4E7FAE002C009
S113006005900D92A239B107D9F712E0A2E9B2E0E6
S113007001C01D92A83BB107E1F7E9D0FAC4C0CF93
S1130080982F882349F022E030E040E050E0822FAE
S11300908A95F1F79150D9F70895CF93DF93282FDC
S11300A0882349F0A0EDB7E0C0E0D0E0CD0101978E
S11300B0F1F72150D9F7DF91CF9108951F93CF9392
S11300C0182FC0E0C817B0F48AEFE7DF8AEFE5DF46
S11300D08AEFE3DF8AEFE1DFCF5FC11758F48AEFDD
S11300E0DCDF8AEFDADF8AEFD8DF8AEFD6DFCF5F93
S11300F0C11750F3CF911F910895CF93C82F862F26
S113010097D3CC2351F0C13009F43FC0C23009F475
S113011058C0C33009F070C01CC06C2F8C2F90D312
S113012061E08C2F8DD362E08C2F8AD36C2F81E019
S113013087D36C2F82E084D361E0862F81D362E081
S1130140862F7ED363E0862F7BD364E0862F78D31B
S113015053C060E086E074D361E086E071D362E06E
S113016086E06ED360E085E06BD360E084E068D322
S113017061E085E065D362E084E062D36C2F8C2F6C
S11301805FD364E082E05CD337C064E080E058D39E
S113019063E080E055D362E080E052D364E08C2FCA
S11301A04FD364E082E04CD363E08C2F49D362E008
S11301B0862F46D36C2F83E043D360E084E040D3A2
S11301C01BC064E086E03CD363E086E039D36C2F47
S11301D086E036D364E085E033D364E0862F30D301
S11301E063E085E02DD36C2F84E02AD361E083E0C3
S11301F027D360E08C2F24D3CF91089562E080E070
S11302007CDF88EC4ADF88EC48DF88EC46DF08D3E3
S113021062E081E072DF88EC40DF88EC3EDF88EC4E
S11302203CDFFED262E0862F68DF88EC36DF88ECA4
S113023034DF88EC32DFF4D262E083E05EDF88EC06
S11302402CDF88EC2ADF88EC28DFEAD20895CFEF90
S1130250D4E0DEBFCDBFDD2491E0C92E52D2D3D28B
S11302608AE0D9D2DDD235D25AD27CD380E091E073
S1130270A8D3C4DF8C2D22DFD3D2C0E0D0E0EC2C95
S1130280FF241E141F0494F401E211E062E0F8015B
S113029081918F0132DF88EC00DF88ECFEDE88EC90
S11302A0FCDEBED22196CE15DF0584F3C0E0D0E09B
S11302B001E211E0B5D268D2DD2059F59091B00287
S11302C0992361F480919902882341F480919802E2
S11302D0882321F48091B402882329F081E0D82E68
S11302E0992309F055C080919902882321F58091C2
S11302F09802882381F58091B4028823E1F5EC16F5
S1130300FD06C1F6C39483E0F801808388ECC5DE62
S1130310B3CF8091B002882369F680919902882333
S113032049F680919802882329F68091B4028823A3
S113033009F6D82EBFCF61E0862FDFDE84E6ADDE7E
S1130340F8018081813089F521960F5F1F4F8091DC
S11303509802882381F261E082E0CFDE84E69DDEAC
S1130360F8018081823009F521960F5F1F4F80913B
S1130370B402882321F261E083E0BFDE84E68DDEEF
S1130380F8018081833089F421960F5F1F4FB7CF26
S11303906D2D80E0B2DE84E680DEF8018081882362
S11303A021F421960F5F1F4F9ECF3AD280E090E058
S11303B060C380919502882339F48093B1028091BF
S11303C080008F77809380008091B102882309F4A4
S11303D0B9C0809195028F3F09F4CFC0809180000D
S11303E08068809380008091AD029091AE029093DA
S11303F08900809388005091AA0240919302652F4E
S1130400640F712D711DDB019091AB0280919402F8
S1130410692F680F712D711D9B016F3F710511F0DC
S113042008F011962115310509F01196CD010197B7
S1130430A032B10508F090978032910508F08097BA
S1130440E0919B02F0919C02AE0FBF1F6C91E80FEC
S1130450F91FE081852F840F2F3F310521F018F01B
S11304608F5F205031402093AB02803208F08052DD
S11304708093AA02E61708F077C0862F99274E2F9B
S11304805527841B950B2091AB023327289FD0015D
S1130490299FB00D389FB00D11242B2F3327E61759
S11304A008F051C0420F531F5093AE024093AD0267
S11304B08091AD029091AE0297FD51C080919D0252
S11304C090919E02009731F0019790939E02809341
S11304D09D0208958091B2029091B302009709F0B1
S11304E052C088EC90E09093B3028093B202219AB8
S11304F0A091B502B091B6024D91B093B602A0930B
S1130500B502E42FFF27EE0FFF1FE355FE4F2081B6
S11305103181832F992780939302209394028D91A4
S1130520B093B602A093B50240939502E82FFF273B
S1130530EE0FFF1FED57FE4F8081918190939E0235
S113054080939D020895421B530B5093AE02409337
S1130550AD028091AD029091AE0297FFAFCF1092A1
S1130560AE021092AD02AACF4E2F55279A01261B38
S113057031098091AB02992789CF809180008F77D0
S11305808093800038CF01979093B3028093B20296
S1130590219808951F920F920FB60F9211242F9352
S11305A03F934F935F936F937F938F939F93AF93F7
S11305B0BF93EF93FF93FDDE80919002815080936F
S11305C0900280919002882309F072C084E18093A4
S11305D0900280919A029927AA27BB27FC010A97C7
S11305E0F0F080919A028F5F80939A0280919A0230
S11305F08A3008F45DC010929A028091AF02815053
S11306008093AF028091AF02882309F051C080919A
S1130610A9028093AF0281E08093AC0249C0E65EF8
S1130620FF4F09942E988091A80280688BB92F9A65
S1130630D8CF2F9880919F0280688BB9419AD1CFEF
S113064041988091A00280688BB9429ACACF42989F
S11306508091A10280688BB9439AC3CF439880915B
S1130660A20280688BB9449ABCCF44988091A302BB
S113067080688BB9459AB5CF45988091A40280686B
S11306808BB92B9AAECF2B988091A50280688BB939
S11306902C9AA7CF2C988091A60280688BB92D9AAA
S11306A0A0CF2D988091A70280688BB92E9A99CFFC
S11306B0FF91EF91BF91AF919F918F917F916F9136
S11306C05F914F913F912F910F900FBE0F901F900C
S11306D0189581E390E0909387008093860089E1E8
S11306E090E0909389008093880082E88093800052
S11306F08AE18093810080916F00816080936F0014
S1130700089585E085B98AEF84B981E088B98EEFD0
S113071087B980E88BB98FE78AB9789408951092E5
S1130720B00210929902109298021092B4021092A0
S1130730960210929202109297021092B7020895B4
S11307408091B002882311F018991BC080919902FE
S1130750882311F01A9912C080919802882311F00D
S1130760309909C08091B402882321F04F9B02C0C4
S11307701092B402089510929802F4CF1092990244
S1130780EBCF1092B002E2CF8091B002882341F403
S1130790189906C081E08093B00280939602089570
S11307A080919902882391F080919802882311F412
S11307B0309B16C08091B402882381F44F990EC0F7
S11307C081E08093B4028093B70208951A99ECCF24
S11307D081E080939902809392020895B1DF089595
S11307E081E0809398028093970208958091AC02EF
S11307F0882329F400008091AC028823D9F30000F7
S11308001092AC0208951092AC0281E08093A90288
S11308108093AF020895882311F08093A90208956C
S1130820EFE9F2E089E01192815087FFFCCF08954F
S1130830837080938F02089580918F029927089581
S1130840282F873038F5653028F580E490E002C021
S1130850959587952A95E2F7282F30918F0230FDE0
S11308601AC07727FB01E156FD4F982F909585819B
S11308708923858331FF07C0FB01E156FD4F808149
S1130880822B80830895FB01E156FD4F20958081E2
S11308908223808308957727FB01E156FD4F8581EC
S11308A0822BE7CF0F931F93CF93DF93182F022F41
S11308B0873008F052C0653008F04FC0473008F068
S11308C04CC0253008F049C0481708F443C0061747
S11308D018F4862F602F082F262F0617F0F1809129
S11308E08F029927BC0161707070DC01A270B07036
S11308F0512F411758F1E22FFF27C0E4D0E0E15611
S1130900FD4F0BC08581832B85831097C1F08081B7
S1130910832B80835F5F4517C8F0CE01052E02C08C
S1130920959587950A94E2F7382F6115710551F76B
S1130930982F9095858189238583109741F7309569
S11309408081832380835F5F451738F72F5F021709
S113095078F603C0142F482FBACFDF91CF911F919F
S11309600F9108958FE492E090939C0280939B02F0
S11309701092B10280914F0299279093AE02809316
S1130980AD0208950895823029F0813051F083300A
S113099079F008958FE692E090939C0280939B02F5
S11309A008958FE492E090939C0280939B020895B3
S11309B08FE292E090939C0280939B0208950895A5
S11309C00895CF93DF93EC01009709F441C010928E
S11309D0B1029093B6028093B502DC014D91B093BD
S11309E0B602A093B502442399F1E42FFF27EE0F3A
S11309F0FF1FE355FE4F20813181832F9927809378
S1130A0093022093940289811196B093B602A09325
S1130A10B50240939502E82FFF27EE0FFF1FED5715
S1130A20FE4F8081918190939E0280939D0210924B
S1130A30AA021092AB02E0919B02F0919C02808189
S1130A4099279093AE028093AD0281E08093B10226
S1130A50DF91CF9108958091B102992708958091F3
S1130A60B102882329F000008091B1028823D9F7CC
S1070A700895FFCF13
S1130A742C0628062A062C062F062D062D063106DA
S1130A842F062F063406330634062F062C062818A0
S1130A94000100000000000000000000000000004D
S1130AA4000000000000000000000000000000003E
S1130AB4000000000000000000000000000000002E
S1130AC4000000000000000000000000000000001E
S1130AD4000000000000000000000000000000000E
S1130AE400000000000000000000000000000000FE
S1130AF4000000000000000000C409050D00008887
S1130B041300000000000000000000102700000093
S1130B1400000000000000000000000000000000CD
S1130B24000000204E00000000000000000000004F
S1130B340000000000000000000000307500000008
S1130B44000000000000000000000000000000009D
S1130B54000000409C4000440048004C00510055F3
S1130B64005A00600066006C0072007900800088FE
S1130B740090009800A100AB00B500C000CB00D7E2
S1130B8400E400F20000010F011F0130014301568B
S1130B94016A017F019601AF01C801E3010002006B
S1130BA4000000000000000000000000000000310C
S1130BB4313131313131313131313131313131004E
S1130BC40203050608090B0D0E1011131516181946
S1130BD41B1C1E202123242628292B2C2E2F3119BB
S1130BE41D22262A2D2F3131312F2D2A26221D197B
S1130BF4140F0B0704020000000204070B0F140176
S1050C041400D6
S9030000FC
