:1000000023C03DC03CC03BC03AC039C038C037C037
:1000100036C035C034C033C032C033C430C02FC046
:100020002EC02DC02CC02BC02AC029C028C027C07C
:1000300026C025C075C47BC481C487C48DC493C445
:1000400099C49FC4A5C465C411241FBECFEFD4E0DA
:10005000DEBFCDBF12E0A0E0B1E0ECEAFFE002C0FD
:1000600005900D92A83AB107D9F712E0A8EAB2E0DC
:1000700001C01D92AE3CB107E1F73ED296C7C0CF9A
:10008000982F882349F022E030E040E050E0822FB2
:100090008A95F1F79150D9F70895CF93DF93282FE0
:1000A000882349F0A0EDB7E0C0E0D0E0CD01019792
:1000B000F1F72150D9F7DF91CF9108951F93CF9396
:1000C000182FC0E0C817B0F48AEFE7DF8AEFE5DF4A
:1000D0008AEFE3DF8AEFE1DFCF5FC11758F48AEFE1
:1000E000DCDF8AEFDADF8AEFD8DF8AEFD6DFCF5F97
:1000F000C11750F3CF911F910895CF93C82F862F2A
:100100000ED5CC2351F0C13009F43FC0C23009F400
:1001100058C0C33009F070C01CC06C2F8C2F07D59D
:1001200061E08C2F04D562E08C2F01D56C2F81E02B
:10013000FED46C2F82E0FBD461E0862FF8D462E01D
:10014000862FF5D463E0862FF2D464E0862FEFD4B7
:1001500053C060E086E0EBD461E086E0E8D462E082
:1001600086E0E5D460E085E0E2D460E084E0DFD4BE
:1001700061E085E0DCD462E084E0D9D46C2F8C2F80
:10018000D6D464E082E0D3D437C064E080E0CFD43A
:1001900063E080E0CCD462E080E0C9D464E08C2FDE
:1001A000C6D464E082E0C3D463E08C2FC0D462E0A4
:1001B000862FBDD46C2F83E0BAD460E084E0B7D43E
:1001C0001BC064E086E0B3D463E086E0B0D46C2F5B
:1001D00086E0ADD464E085E0AAD464E0862FA7D49D
:1001E00063E085E0A4D46C2F84E0A1D461E083E0D7
:1001F0009ED460E08C2F9BD4CF910895CF93DF9352
:10020000FC01E65EFE4F8081882319F4CEE7D1E041
:100210000EC0813039F0823041F0833041F4C1E1C9
:10022000D1E005C0C7E1D1E002C0C4E1D1E062E0A5
:10023000808163DF88EC31DFCE013AD588EC2DDF99
:1002400088EC2BDF64D488EC28DFDF91CF91089510
:1002500062E080E052DF88EC20DF88EC1EDF88EC73
:100260001CDF55D462E081E048DF88EC16DF88ECC3
:1002700014DF88EC12DF4BD462E0862F3EDF88EC7F
:100280000CDF88EC0ADF88EC08DF41D462E083E011
:1002900034DF88EC02DF88EC00DF88ECFEDE37D448
:1002A00008950F931F938C010E5F1F4F60E0802F06
:1002B0003ED461E0802F3BD462E0802F38D463E0ED
:1002C000802F35D463E0802F32D464E0802F2FD488
:1002D0001F910F9108950F931F938C0160E027D415
:1002E00061E0802F24D462E0802F21D463E0802F4E
:1002F0001ED463E0802F1BD464E0802F18D41F919C
:100300000F910895EF92FF920F931F938C010F5F4F
:100310001F4F22E0E22EF12CE80EF91E60E007D418
:1003200060E0802F04D460E08E2D01D41F910F91E6
:10033000FF90EF900895EF92FF920F931F938C011F
:100340000F5F1F4F32E0E32EF12CE80EF91E62E042
:10035000EED362E0802FEBD362E08E2DE8D31F91C5
:100360000F91FF90EF900895EF92FF920F931F93DC
:100370008C010F5F1F4F42E0E42EF12CE80EF91EB6
:1003800064E0D5D364E0802FD2D364E08E2DCFD348
:100390001F910F91FF90EF900895EF92FF920F93AE
:1003A0001F93CF93DF93EB018B010F5F1F4F52E041
:1003B000E52EF12CE60EF71E009769F181309105CC
:1003C000D1F18230910509F446C08330910561F185
:1003D0008430910509F44AC08530910509F451C073
:1003E0008630910509F458C08730910509F45EC044
:1003F00088309105B9F0099709F05CC0CB016BDF3B
:1004000061E08C2F94D361E08E2D91D3CE0193DFE8
:10041000CE01AADF4FC0CB015EDFCE0142DFCE01AD
:1004200071DFF6CFCB0157DFCE013BDFCE016ADFB4
:10043000CE0181DFEDCF60E0802F79D361E0802FA6
:1004400076D362E0802F73D363E0802F70D364E0B3
:10045000802F6DD32FC0CB0155DF61E08E2D67D388
:10046000CE0169DF63E08C2F62D3D2CF60E08C2FA6
:100470005ED361E08C2F5BD3CE0113DFCE015BDF57
:1004800019C0CB013FDF61E08C2F51D3CE0153DF88
:1004900063E08E2D4CD3BCCFCB011DDFCE014BDFF3
:1004A00063E08C2F44D363E08E2DF4CFCB01F9DED3
:1004B000CE0128DFDF91CF911F910F91FF90EF9038
:1004C0000895EF92FF920F931F937C0181E027D351
:1004D0000AE010E0C701B801AED464E070E05DDF6F
:1004E000C701B801A8D4CB0160E070E056DF1F91CE
:1004F0000F91FF90EF900895CFEFD4E0DEBFCDBF16
:10050000DD24F1E0CF2E74D2F5D28AE0FBD2FFD207
:1005100057D27CD29ED381E891E0CAD399DE8C2D4C
:10052000CDDDF5D2C0E0D0E0EC2CFF241E141F047A
:1005300034F4CE0163DE2196CE15DF05D4F3C0E09E
:10054000D0E0EAE1AE2EE1E0BE2EAE0CBF1C0AE127
:1005500011E0DDD290D2DD20C1F59091C602992341
:1005600061F48091AF02882341F48091AE02882328
:1005700021F48091CA02882329F071E0D72E9923B3
:1005800009F072C08091AF028823A9F58091AE0274
:10059000882309F045C08091CA02882309F054C01D
:1005A000EC16FD06B1F6C39437D4FC0197FD6CC080
:1005B000E8E0FE02E12DFF0B1124E35FFE4F808196
:1005C000F501808388EC69DDACCF8091C602882379
:1005D00009F0BFCF8091AF02882309F0BACF809194
:1005E000AE02882309F0B5CF8091CA02882309F0B2
:1005F000B0CFD82EAECF63E081E07FDD87E191E020
:1006000057D384E64ADDF8018081813009F03FC08C
:1006100021960F5F1F4F8091AE02882309F4BBCF54
:1006200063E082E06ADD84E191E042D384E635DD77
:10063000F8018081823059F521960F5F1F4F80911C
:10064000CA02882309F4ACCF63E0862F56DD81E12E
:1006500091E02ED384E621DDF80180818330B9F466
:1006600021960F5F1F4F9CCF63E080E046DD8EE751
:1006700091E01ED384E611DDF8018081882339F4EE
:1006800021960F5F1F4F7ECFE150F04E91CF3FD2AA
:1006900080E091E00DD3C70114DF80E090E085C4D5
:1006A0008091AB02882339F48093C7028091800047
:1006B0008F77809380008091C702882309F4B9C0A6
:1006C0008091AB028F3F09F4CFC080918000806899
:1006D000809380008091C3029091C402909389001E
:1006E000809388005091C0024091A902652F640F49
:1006F000712D711DDB019091C1028091AA02692FB9
:10070000680F712D711D9B016F3F710511F008F08D
:1007100011962115310509F01196CD010197A032EE
:10072000B10508F090978032910508F08097E0912C
:10073000B102F091B202AE0FBF1F6C91E80FF91F2A
:10074000E081852F840F2F3F310521F018F08F5F56
:10075000205031402093C102803208F080528093B3
:10076000C002E61708F077C0862F99274E2F55272D
:10077000841B950B2091C1023327289FD001299F0C
:10078000B00D389FB00D11242B2F3327E61708F03A
:1007900051C0420F531F5093C4024093C302809133
:1007A000C3029091C40297FD51C08091B302909111
:1007B000B402009731F001979093B4028093B30292
:1007C00008958091C8029091C902009709F052C023
:1007D00088EC90E09093C9028093C802219AA0917E
:1007E000CB02B091CC024D91B093CC02A093CB023E
:1007F000E42FFF27EE0FFF1FE054FE4F20813181D1
:10080000832F99278093A9022093AA028D91B093F8
:10081000CC02A093CB024093AB02E82FFF27EE0F50
:10082000FF1FEA56FE4F808191819093B40280931E
:10083000B3020895421B530B5093C4024093C3026A
:100840008091C3029091C40297FFAFCF1092C4026F
:100850001092C302AACF4E2F55279A01261B3109A9
:100860008091C102992789CF809180008F778093F2
:10087000800038CF01979093C9028093C8022198D5
:1008800008951F920F920FB60F9211242F933F934A
:100890004F935F936F937F938F939F93AF93BF9388
:1008A000EF93FF93FDDE8091A30281508093A3021A
:1008B0008091A302882309F072C084E18093A3028F
:1008C0008091B0029927AA27BB27FC010A97F0F074
:1008D0008091B0028F5F8093B0028091B0028A3025
:1008E00008F45DC01092B0028091C50281508093DF
:1008F000C5028091C502882309F051C08091BF02D2
:100900008093C50281E08093C20249C0E65EFF4F3A
:1009100009942E988091BE0280688BB92F9AD8CF07
:100920002F988091B50280688BB9419AD1CF4198B8
:100930008091B60280688BB9429ACACF4298809162
:10094000B70280688BB9439AC3CF43988091B802AD
:1009500080688BB9449ABCCF44988091B902806872
:100960008BB9459AB5CF45988091BA0280688BB90A
:100970002B9AAECF2B988091BB0280688BB92C9AB2
:10098000A7CF2C988091BC0280688BB92D9AA0CFFC
:100990002D988091BD0280688BB92E9A99CFFF91D6
:1009A000EF91BF91AF919F918F917F916F915F91E7
:1009B0004F913F912F910F900FBE0F901F90189560
:1009C00081E390E0909387008093860089E190E036
:1009D000909389008093880082E8809380008AE168
:1009E0008093810080916F00816080936F000895F3
:1009F00085E085B98AEF84B981E088B98EEF87B93F
:100A000080E88BB98FE78AB9789408951092C6026E
:100A10001092AF021092AE021092CA021092AC0273
:100A20001092A8021092AD021092CD02089580910A
:100A3000C602882311F018991BC08091AF02882349
:100A400011F01A9912C08091AE02882311F03099EA
:100A500009C08091CA02882321F04F9B02C01092E6
:100A6000CA0208951092AE02F4CF1092AF02EBCFFB
:100A70001092C602E2CF8091C602882341F41899F1
:100A800006C081E08093C6028093AC0208958091F5
:100A9000AF02882391F08091AE02882311F4309B3D
:100AA00016C08091CA02882381F44F990EC081E05C
:100AB0008093CA028093CD0208951A99ECCF81E009
:100AC0008093AF028093A8020895B1DF089581E07A
:100AD0008093AE028093AD0208958091C202882374
:100AE00029F400008091C2028823D9F300001092FB
:100AF000C20208951092C20281E08093BF028093E7
:100B0000C5020895882311F08093BF020895E5EB94
:100B1000F2E089E01192815087FFFCCF0895837045
:100B20008093A20208958091A20299270895282F08
:100B3000873038F5653028F580E490E002C095955F
:100B400087952A95E2F7282F3091A20230FD1AC02E
:100B50007727FB01EB54FD4F982F909585818923D2
:100B6000858331FF07C0FB01EB54FD4F8081822B51
:100B700080830895FB01EB54FD4F209580818223F3
:100B8000808308957727FB01EB54FD4F8581822BED
:100B9000E7CF0F931F93CF93DF93182F022F873048
:100BA00008F052C0653008F04FC0473008F04CC024
:100BB000253008F049C0481708F443C0061718F458
:100BC000862F602F082F262F0617F0F18091A202A2
:100BD0009927BC0161707070DC01A270B070512F58
:100BE000411758F1E22FFF27C0E4D0E0EB54FD4F4E
:100BF0000BC08581832B85831097C1F08081832B67
:100C000080835F5F4517C8F0CE01052E02C0959521
:100C100087950A94E2F7382F6115710551F7982FDF
:100C20009095858189238583109741F73095808140
:100C3000832380835F5F451738F72F5F021778F6AD
:100C400003C0142F482FBACFDF91CF911F910F917E
:100C5000089582E692E09093B2028093B1021092DE
:100C6000C7028091620299279093C4028093C302C5
:100C700008950895823029F0813051F0833079F061
:100C8000089582E892E09093B2028093B1020895B1
:100C900082E692E09093B2028093B102089582E4DA
:100CA00092E09093B2028093B1020895089508955E
:100CB000CF93DF93EC01009709F441C01092C70273
:100CC0009093CC028093CB02DC014D91B093CC0287
:100CD000A093CB02442399F1E42FFF27EE0FFF1FCF
:100CE000E054FE4F20813181832F99278093A90200
:100CF0002093AA0289811196B093CC02A093CB02D3
:100D00004093AB02E82FFF27EE0FFF1FEA56FE4F7E
:100D1000808191819093B4028093B3021092C002BB
:100D20001092C102E091B102F091B2028081992744
:100D30009093C4028093C30281E08093C702DF9145
:100D4000CF9108958091C702992708958091C70295
:100D5000882329F000008091C7028823D9F70895DD
:100D6000A0E0B0E0E5EBF6E0CFC0EC01A880B980F0
:100D7000CA80DB80A114B104C104D10441F484E22F
:100D8000A82E89EDB82E8BE5C82E87E0D82EC60197
:100D9000B5012DE133EF41E050E093D079018A01B4
:100DA000C601B5012DE133EF41E050E08AD0DC010E
:100DB000CB01BC01CD0127EA31E440E050E062D034
:100DC0005B016C01C801B70124E13BE040E050E069
:100DD00059D0DC01CB01A81AB90ACA0ADB0AD7FE2E
:100DE00008C08FEF9FEFAFEFBFE7A80EB91ECA1E76
:100DF000DB1EA882B982CA82DB828FEF9FE7A0E068
:100E0000B0E0A822B922CA22DB22C501EAE0CDB7B0
:100E1000DEB796C0A5DF089584EA92E0A1DF0895C9
:100E2000AA27BB278093A4029093A502A093A602B1
:100E3000B093A702089597FB092E07260AD077FDE5
:100E400004D00CD006D000201AF4709561957F4F25
:100E50000895F6F7909581959F4F0895AA1BBB1BA7
:100E600051E107C0AA1FBB1FA617B70710F0A61BAA
:100E7000B70B881F991F5A95A9F780959095BC01CB
:100E8000CD010895629FD001739FF001829FE00D14
:100E9000F11D649FE00DF11D929FF00D839FF00DF9
:100EA000749FF00D659FF00D9927729FB00DE11DA5
:100EB000F91F639FB00DE11DF91FBD01CF01112482
:100EC000089597FB092E05260ED057FD04D04BD070
:100ED0000AD0001C38F450954095309521953F4F2D
:100EE0004F4F5F4F0895F6F79095809570956195F7
:100EF0007F4F8F4F9F4F08952F923F924F925F9257
:100F00006F927F928F929F92AF92BF92CF92DF9219
:100F1000EF92FF920F931F93CF93DF93CDB7DEB77E
:100F2000CA1BDB0B0FB6F894DEBF0FBECDBF099412
:100F30002A88398848885F846E847D848C849B8469
:100F4000AA84B984C884DF80EE80FD800C811B8177
:100F5000AA81B981CE0FD11D0FB6F894DEBF0FBEA6
:100F6000CDBFED010895A1E21A2EAA1BBB1BFD0106
:100F70000DC0AA1FBB1FEE1FFF1FA217B307E40778
:100F8000F50720F0A21BB30BE40BF50B661F771FD0
:100F9000881F991F1A9469F76095709580959095B0
:0C0FA0009B01AC01BD01CF010895FFCF03
:100FAC00231823062830231828062C3000000102B1
:100FBC00033103002F03002C03000100000000008C
:100FCC000000000000000000000000000000000015
:100FDC000000000000000000000000000000000005
:100FEC0000000000000000000000000000000000F5
:100FFC0000000000000000000000000000000000E5
:10100C0000000000000000000000000000000000D4
:10101C000000000000000000000000000000280399
:10102C000028062C062D18FF0C28062C062F18FF5E
:10103C000C2D062C0628180000000000C409050D14
:10104C0000008813000000000000000000001027C2
:10105C000000000000000000000000000000000084
:10106C00000000000000204E000000000000000006
:10107C0000000000000000000000000000003075BF
:10108C000000000000000000000000000000000054
:10109C00000000000000409C4000440048004C0050
:1010AC00510055005A00600066006C007200790017
:1010BC008000880090009800A100AB00B500C00033
:1010CC00CB00D700E400F20000010F011F0130013A
:1010DC00430156016A017F019601AF01C801E3018A
:1010EC0000020000000000000000000000000000F2
:1010FC000000313131313131313131313131313136
:10110C003131000203050608090B0D0E10111315E1
:10111C001618191B1C1E202123242628292B2C2EA3
:10112C002F31191D22262A2D2F3131312F2D2A2610
:10113C00221D19140F0B0704020000000204070BF8
:08114C000F1401140100000062
:00000001FF
