:1000000023C03DC03CC03BC03AC039C038C037C037
:1000100036C035C034C033C032C0E6C430C02FC093
:100020002EC02DC02CC02BC02AC029C028C027C07C
:1000300026C025C028C52EC534C53AC540C546C50D
:100040004CC552C558C518C511241FBECFEFD4E00A
:10005000DEBFCDBF12E0A0E0B1E0E8E9FFE002C002
:1000600005900D92A236B107D9F712E0A2E6B2E0F0
:1000700001C01D92AC3EB107E1F7D2D28CC7C0CF10
:10008000982F882349F022E030E040E050E0822FB2
:100090008A95F1F79150D9F70895CF93DF93282FE0
:1000A000882349F0A0EDB7E0C0E0D0E0CD01019792
:1000B000F1F72150D9F7DF91CF9108951F93CF9396
:1000C000182FC0E0C817B0F48AEFE7DF8AEFE5DF4A
:1000D0008AEFE3DF8AEFE1DFCF5FC11758F48AEFE1
:1000E000DCDF8AEFDADF8AEFD8DF8AEFD6DFCF5F97
:1000F000C11750F3CF911F9108956F927F928F9205
:100100009F92AF92BF92CF92DF92EF92FF920F93A6
:100110001F933B014C01A0905201B0905301C0903D
:100120005401D0905501D601C501A070B070BC013A
:10013000CD0129E630E940E050E0C5D67B018C01D5
:10014000C601AA27BB27E80EF91E0A1F1B1FE09253
:100150005201F09253010093540110935501A09065
:100160004E01B0904F01C0905001D0905101D60186
:10017000C501A070B070BC01CD0120E536E440E0BF
:1001800050E0A1D69B01AC01C601AA27BB27280FCE
:10019000391F4A1F5B1F20934E0130934F0140933C
:1001A000500150935101D70199278827820F931F3F
:1001B000A41FB51FBC01CD01A4019301B6D6DC017B
:1001C000CB01BC01CD011F910F91FF90EF90DF900B
:1001D000CF90BF90AF909F908F907F906F90089539
:1001E000E0E0F0E020914E0130914F01409150014C
:1001F0005091510181919191AA27BB27820F931FA2
:10020000A41FB51F9C01AD016FEFEF3FF60791F7FB
:1002100080934E0190934F01A0935001B0935101F0
:100220000895CF93C82F862F2DD5CC2351F0C13000
:1002300009F43FC0C23009F458C0C33009F070C09F
:100240001CC06C2F8C2F26D561E08C2F23D562E04B
:100250008C2F20D56C2F81E01DD56C2F82E01AD514
:1002600061E0862F17D562E0862F14D563E0862FD4
:1002700011D564E0862F0ED553C060E086E00AD524
:1002800061E086E007D562E086E004D560E085E0C5
:1002900001D560E084E0FED461E085E0FBD462E05B
:1002A00084E0F8D46C2F8C2FF5D464E082E0F2D493
:1002B00037C064E080E0EED463E080E0EBD462E03D
:1002C00080E0E8D464E08C2FE5D464E082E0E2D4FE
:1002D00063E08C2FDFD462E0862FDCD46C2F83E0C8
:1002E000D9D460E084E0D6D41BC064E086E0D2D4E8
:1002F00063E086E0CFD46C2F86E0CCD464E085E068
:10030000C9D464E0862FC6D463E085E0C3D46C2FE3
:1003100084E0C0D461E083E0BDD460E08C2FBAD427
:10032000CF910895CF93DF93FC01EE59FD4F80816B
:10033000882319F4C0E3D1E00EC0813039F0823057
:1003400041F0833041F4C7E2D1E005C0CDE2D1E015
:1003500002C0CAE2D1E062E0808163DF88EC9DDE0A
:10036000CE0159D588EC99DE88EC97DE83D488ECF1
:1003700094DEDF91CF91089562E080E052DF88EC57
:100380008CDE88EC8ADE88EC88DE74D462E081E062
:1003900048DF88EC82DE88EC80DE88EC7EDE6AD482
:1003A00062E0862F3EDF88EC78DE88EC76DE88EC33
:1003B00074DE60D462E083E034DF88EC6EDE88ECCB
:1003C0006CDE88EC6ADE56D408950F931F938C017F
:1003D0000E5F1F4F60E0802F5DD461E0802F5AD404
:1003E00062E0802F57D463E0802F54D463E0802FE5
:1003F00051D464E0802F4ED41F910F9108950F9334
:100400001F938C0160E046D461E0802F43D462E00A
:10041000802F40D463E0802F3DD463E0802F3AD416
:1004200064E0802F37D41F910F910895EF92FF92CF
:100430000F931F938C010F5F1F4F32E0E32EF12CBF
:10044000E80EF91E60E026D460E0802F23D460E03F
:100450008E2D20D41F910F91FF90EF900895EF9271
:10046000FF920F931F938C010F5F1F4F42E0E42E0A
:10047000F12CE80EF91E62E00DD462E0802F0AD460
:1004800062E08E2D07D41F910F91FF90EF90089599
:10049000EF92FF920F931F938C010F5F1F4F52E05B
:1004A000E52EF12CE80EF91E64E0F4D364E0802F11
:1004B000F1D364E08E2DEED31F910F91FF90EF905A
:1004C0000895EF92FF920F931F93CF93DF93EB0169
:1004D0008B010F5F1F4F62E0E62EF12CEC0EFD1E2C
:1004E000009769F181309105D1F18230910509F4CD
:1004F00046C08330910561F18430910509F44AC00A
:100500008530910509F451C08630910509F458C031
:100510008730910509F45EC088309105B9F00997DC
:1005200009F05CC0CE016BDF61E08C2FB3D361E0DA
:100530008E2DB0D3CE0193DFCE01AADF4FC0CE0106
:100540005EDFCE0142DFCE0171DFF6CFCE0157DF95
:10055000CE013BDFCE016ADFCE0181DFEDCF60E06F
:10056000802F98D361E0802F95D362E0802F92D3C3
:1005700063E0802F8FD364E0802F8CD32FC0CE0117
:1005800055DF61E08E2D86D3CE0169DF63E08C2FCD
:1005900081D3D2CF60E08C2F7DD361E08C2F7AD3D2
:1005A000CE0113DFCE015BDF19C0CE013FDF61E07A
:1005B0008C2F70D3CE0153DF63E08E2D6BD3BCCF75
:1005C000CE011DDFCE014BDF63E08C2F63D363E0F0
:1005D0008E2DF4CFCE01F9DECE0128DFDF91CF9151
:1005E0001F910F91FF90EF900895EF92FF920F935C
:1005F0001F937C0181E046D30AE010E0C701B801F7
:1006000081D464E070E05DDFC701B8017BD4CB0129
:1006100060E070E056DF1F910F91FF90EF9008951A
:10062000CFEFD4E0DEBFCDBFDBDD95D2DD24F1E03E
:10063000CF2E64E070E080E090E05FDDDC01CB0174
:10064000FC01E65BFE4F80818093620206D38AE064
:100650000CD310D368D28DD2AFD383E391E0DBD338
:100660008BDE8C2D2BDD06D3C0E0D0E0EC2CFF24FC
:100670001E141F0434F4CE0155DE2196CE15DF057D
:10068000D4F3C0E0D0E0E2E6AE2EE2E0BE2EAE0C47
:10069000BF1C02E612E0EED2A1D2DD2009F044C078
:1006A0009091E402992361F48091CD02882341F472
:1006B0008091CC02882321F48091E802882329F0DC
:1006C00071E0D72E992309F07DC08091CD02882357
:1006D00009F040C08091CC02882309F04FC080917E
:1006E000E802882309F05EC0EC16FD06A1F6F3E6E9
:1006F000CF1609F47FC0BED288ECCFDC80E291E057
:100700008AD3C39464E070E080E090E0F6DCDC0122
:10071000CB01FC01E65BFE4F8081F501808388EC14
:10072000BCDC88ECBADC9FCF8091E402882309F01E
:10073000B2CF8091CD02882309F0ADCF8091CC0259
:10074000882309F0A8CF8091E802882309F0A3CF7D
:10075000D82EA1CF63E081E064DD8DE291E05BD330
:1007600084E69BDCF80180818130E1F521960F5F02
:100770001F4F8091CC02882309F4B1CF63E082E05F
:1007800050DD8AE291E047D384E687DCF80180817E
:10079000823041F521960F5F1F4F8091E802882338
:1007A00009F4A2CF63E0862F3CDD87E291E033D3EA
:1007B00084E673DCF80180818330A1F421960F5F19
:1007C0001F4F92CF63E080E02CDD80E391E023D3E4
:1007D00084E663DCF8018081882321F421960F5F91
:1007E0001F4F73CF47D288EC58DC88EC56DC80E092
:1007F00091E003C03FD28DE091E00DD3C701F5DE5B
:1008000080E090E0C8C38091C902882339F48093C6
:10081000E502809180008F77809380008091E502CF
:10082000882309F4B9C08091C9028F3F09F4CFC071
:10083000809180008068809380008091E102909197
:10084000E20290938900809388005091DE024091EB
:10085000C702652F640F712D711DDB019091DF02BE
:100860008091C802692F680F712D711D9B016F3F28
:10087000710511F008F011962115310509F0119656
:10088000CD010197A032B10508F090978032910513
:1008900008F08097E091CF02F091D002AE0FBF1F19
:1008A0006C91E80FF91FE081852F840F2F3F3105F0
:1008B00021F018F08F5F205031402093DF0280320A
:1008C00008F080528093DE02E61708F077C0862F8A
:1008D00099274E2F5527841B950B2091DF02332734
:1008E000289FD001299FB00D389FB00D11242B2FC8
:1008F0003327E61708F051C0420F531F5093E2020E
:100900004093E1028091E1029091E20297FD51C093
:100910008091D1029091D202009731F0019790938B
:10092000D2028093D10208958091E6029091E7026D
:10093000009709F052C088EC90E09093E702809312
:10094000E602219AA091E902B091EA024D91B0939A
:10095000EA02A093E902E42FFF27EE0FFF1FE258FF
:10096000FE4F20813181832F99278093C7022093E6
:10097000C8028D91B093EA02A093E9024093C902A4
:10098000E82FFF27EE0FFF1FEC5AFE4F8081918169
:100990009093D2028093D1020895421B530B50933F
:1009A000E2024093E1028091E1029091E20297FF1E
:1009B000AFCF1092E2021092E102AACF4E2F55273C
:1009C0009A01261B31098091DF02992789CF8091F6
:1009D00080008F778093800038CF01979093E70253
:1009E0008093E602219808951F920F920FB60F92FE
:1009F00011242F933F934F935F936F937F938F9324
:100A00009F93AF93BF93EF93FF93FDDE80916102BD
:100A100081508093610280916102882309F072C045
:100A200084E1809361028091CE029927AA27BB2797
:100A3000FC010A97F0F08091CE028F5F8093CE0286
:100A40008091CE028A3008F45DC01092CE0280916F
:100A5000E30281508093E3028091E302882309F04E
:100A600051C08091DD028093E30281E08093E00237
:100A700049C0E65EFF4F09942E988091DC028068A1
:100A80008BB92F9AD8CF2F988091D30280688BB9D9
:100A9000419AD1CF41988091D40280688BB9429A13
:100AA000CACF42988091D50280688BB9439AC3CF50
:100AB00043988091D60280688BB9449ABCCF449801
:100AC0008091D70280688BB9459AB5CF45988091BF
:100AD000D80280688BB92B9AAECF2B988091D9021F
:100AE00080688BB92C9AA7CF2C988091DA02806805
:100AF0008BB92D9AA0CF2D988091DB0280688BB99D
:100B00002E9A99CFFF91EF91BF91AF919F918F91C5
:100B10007F916F915F914F913F912F910F900FBEF9
:100B20000F901F90189581E390E090938700809339
:100B3000860089E190E0909389008093880082E8A4
:100B4000809380008AE18093810080916F008160B2
:100B500080936F00089585E085B98AEF84B981E0BC
:100B600088B98EEF87B980E88BB98FE78AB9789416
:100B700008951092E4021092CD021092CC021092CD
:100B8000E8021092CA021092C6021092CB02109292
:100B9000EB0208958091E402882311F018991BC09C
:100BA0008091CD02882311F01A9912C08091CC0255
:100BB000882311F0309909C08091E802882321F040
:100BC0004F9B02C01092E80208951092CC02F4CF1D
:100BD0001092CD02EBCF1092E402E2CF8091E402BA
:100BE000882341F4189906C081E08093E402809341
:100BF000CA0208958091CD02882391F08091CC02A1
:100C0000882311F4309B16C08091E802882381F478
:100C10004F990EC081E08093E8028093EB02089523
:100C20001A99ECCF81E08093CD028093C60208959B
:100C3000B1DF089581E08093CC028093CB020895C8
:100C40008091E002882329F400008091E00288234B
:100C5000D9F300001092E00208951092E00281E0C2
:100C60008093DD028093E3020895882311F080933E
:100C7000DD020895E3EDF2E089E01192815087FFF3
:100C8000FCCF089583708093600208958091600284
:100C900099270895282F873038F5653028F580E4A6
:100CA00090E002C0959587952A95E2F7282F30911C
:100CB000600230FD1AC07727FB01ED52FD4F982FDF
:100CC000909585818923858331FF07C0FB01ED5213
:100CD000FD4F8081822B80830895FB01ED52FD4FF3
:100CE000209580818223808308957727FB01ED5230
:100CF000FD4F8581822BE7CF0F931F93CF93DF9317
:100D0000182F022F873008F052C0653008F04FC00E
:100D1000473008F04CC0253008F049C0481708F4A7
:100D200043C0061718F4862F602F082F262F0617AA
:100D3000F0F1809160029927BC0161707070DC0154
:100D4000A270B070512F411758F1E22FFF27C0E475
:100D5000D0E0ED52FD4F0BC08581832B858310972A
:100D6000C1F08081832B80835F5F4517C8F0CE017F
:100D7000052E02C0959587950A94E2F7382F6115E4
:100D8000710551F7982F9095858189238583109758
:100D900041F730958081832380835F5F451738F763
:100DA0002F5F021778F603C0142F482FBACFDF91B8
:100DB000CF911F910F91089580E292E09093D0021D
:100DC0008093CF021092E5028091200299279093A0
:100DD000E2028093E10208950895823029F0813083
:100DE00051F0833079F0089580E492E09093D0023E
:100DF0008093CF02089580E292E09093D002809396
:100E0000CF02089580E092E09093D0028093CF02C9
:100E1000089508950895CF93DF93EC01009709F4A6
:100E200041C01092E5029093EA028093E902DC014E
:100E30004D91B093EA02A093E902442399F1E42F83
:100E4000FF27EE0FFF1FE258FE4F20813181832FD5
:100E500099278093C7022093C80289811196B09385
:100E6000EA02A093E9024093C902E82FFF27EE0FA0
:100E7000FF1FEC5AFE4F808191819093D2028093A4
:100E8000D1021092DE021092DF02E091CF02F091C7
:100E9000D002808199279093E2028093E10281E061
:100EA0008093E502DF91CF9108958091E502992723
:100EB00008958091E502882329F000008091E502E1
:100EC0008823D9F70895629FD001739FF001829F14
:100ED000E00DF11D649FE00DF11D929FF00D839FC9
:100EE000F00D749FF00D659FF00D9927729FB00D66
:100EF000E11DF91F639FB00DE11DF91FBD01CF0179
:100F00001124089597FB092E07260AD077FD04D0F7
:100F10002ED006D000201AF4709561957F4F089569
:100F2000F6F7909581959F4F0895A1E21A2EAA1B7E
:100F3000BB1BFD010DC0AA1FBB1FEE1FFF1FA21789
:100F4000B307E407F50720F0A21BB30BE40BF50B86
:100F5000661F771F881F991F1A9469F7609570950F
:100F6000809590959B01AC01BD01CF010895AA1B0E
:100F7000BB1B51E107C0AA1FBB1FA617B70710F084
:100F8000A61BB70B881F991F5A95A9F780959095B6
:080F9000BC01CD010895FFCF63
:100F9800231823062830231828062C30003403365B
:100FA80003380334033603380334033603380300A5
:100FB800340336033803002F03002C03002A0300F0
:100FC8002D030028062C062D18FF0C28062C062FAA
:100FD80018FF0C2D062C06281800000102033930D2
:100FE80000000100010000000000C409050D000018
:100FF8008813000000000000000000001027000017
:1010080000000000000000000000000000000000D8
:1010180000000000204E000000000000000000005A
:101028000000000000000000000000003075000013
:1010380000000000000000000000000000000000A8
:1010480000000000409C4000440048004C00510053
:1010580055005A00600066006C007200790080003C
:10106800880090009800A100AB00B500C000CB003C
:10107800D700E400F20000010F011F013001430115
:1010880056016A017F019601AF01C801E301000220
:101098000000000000000000000000000000000048
:1010A8003131313131313131313131313131313128
:1010B800000203050608090B0D0E1011131516186A
:1010C800191B1C1E202123242628292B2C2E2F31C6
:1010D800191D22262A2D2F3131312F2D2A26221D86
:1010E80019140F0B0704020000000204070B0F1469
:0210F8000114E1
:00000001FF
